:100000000C9434000C9451000C9451000C94510049
:100010000C9451000C9451000C9451000C9451001C
:100020000C9451000C9451000C9451000C9451000C
:100030000C9451000C9451000C9451000C945100FC
:100040000C9451000C9451000C9451000C945100EC
:100050000C9451000C9451000C9451000C945100DC
:100060000C9451000C94510011241FBECFEFD8E026
:10007000DEBFCDBF12E0A0E0B1E0E0E5F7E002C0F6
:1000800005900D92A038B107D9F722E0A0E8B2E0C0
:1000900001C01D92A638B207E1F70E94F6010C9448
:1000A000A6030C94000014BC81E085BD80936E0013
:1000B00078940895E1E8F0E080818160808308957C
:1000C000209184003091850080918400909185007A
:1000D000821B930B86369645B8F30895CF93DF9332
:1000E000EC01209719F4DF91CF9108950E946000F0
:1000F0002197F7CFCF93DF9300D000D0CDB7DEB7F5
:100100009C0181E086BB86E090E041E0199932C015
:1001100081E086BB86E090E041E0199B3FC081E032
:1001200086BB609184007091850090E080E050E093
:1001300040E0E1E0421753070CF43FC020918400F7
:10014000309185002617370708F40197092E000C17
:10015000AA0BBB0BDC0199278827261B370BAC01A8
:10016000BD01420F531F611D711D49835A836B836B
:100170007C8309C0B09BCACF46BB019739F6198270
:100180001A821B821C8269817A818B819C810F90EB
:100190000F900F900F90DF91CF910895B09BBDCF3E
:1001A00046BB019709F0B9CFEACFB09B06C0E6BBCA
:1001B00001968130F4E09F0714F71999F6CF199B47
:1001C00003C04F5F5F4FB6CFB09BF9CFE6BB019640
:1001D0008130F4E09F079CF3D2CF80E480937C00D1
:1001E00087E880937A0008959C0190917C00987F25
:1001F00027703327922B90937C0080917A00806443
:1002000080937A0080917A0086FDFCCF80917800FF
:100210009091790008958F929F92AF92BF92EF9242
:10022000FF920F931F93CF93DF93CDB7DEB7E6977F
:100230000FB6F894DEBF0FBECDBF6BAB7CAB8DAB02
:100240009EAB790181E1EEE0F1E0DE019296019052
:100250000D928A95E1F719A20FE110E04A01550FBE
:10026000AA08BB088BA99CA9ADA9BEA91816190696
:100270001A061B06F4F01E141F04DCF0C8010196D8
:10028000A1E0B0E0AC0FBD1F8A0F9B1F0E94EA01E6
:10029000E6960FB6F894DEBF0FBECDBFDF91CF91CB
:1002A0001F910F91FF90EF90BF90AF909F908F9014
:1002B00008956BA97CA98DA99EA9A50194010E940E
:1002C00078036BAB7CAB8DAB9EABE2E2F0E0EC0F66
:1002D000FD1F8BA99CA9E80FF91F8081E1E0F0E0E8
:1002E000EC0FFD1FE00FF11F80832BAB3CAB4DAB40
:1002F0005EABE114F10419F091E0E91AF108015044
:100300001109B0CF2198299A8AB180668AB9579A83
:10031000209A08955D9A5E985F9A28980C946E00D2
:100320005D985E9A5F98289A0C946E005D985E9A2C
:100330005F9A28980C946E005D9A5E985F98289A50
:100340000C946E009C019BB19F719BB92898C901C8
:100350000C946E0080E091E090938302809382027F
:10036000519A50981092C50087E18093C400E1EC47
:10037000F0E080818860808380818061808386E076
:100380008093C200E0ECF0E0808182608083089579
:100390009091C00095FFFCCF8093C6000895CF9345
:1003A000C82F8A3019F48DE00E94C8018C2F0E945A
:1003B000C80190E080E0CF9108958091C00087FF50
:1003C000FCCF8091C60008958091C000881F8827C7
:1003D000881F0895CF93DF93EC018991811103C0A9
:1003E000DF91CF9108950E94C801F7CFCDB7DEB756
:1003F00060970FB6F894DEBF0FBECDBF0E94AA0172
:100400000E94ED000E9482010E945A0084EF91E058
:100410000E946E008FE191E00E94EA018AE291E081
:100420000E94EA018CE491E00E94EA0189E991E0EE
:100430000E94EA018CEC91E00E94EA0186E192E0E0
:100440000E94EA018BB1837C8BB985B1807185B93B
:10045000CC24CA9483E0D82EE12CF12C98EE892E7E
:1004600093E0992EA12CB12C90E080E00E94F40042
:1004700089839A8329813A81A8E8B3E10E9497038E
:1004800069877A878B879C8785E592E00E94EA01DD
:10049000A981BA81CD01B0E0A0E023E030E040E1E5
:1004A00050E0BC01CD010E940B018FE592E00E945B
:1004B000EA0169857A858B859C85A70196010E9452
:1004C0007803CA01B901A50194010E94560329834A
:1004D0003A834B835C836D837E838F83988721E08F
:1004E00030E04AE050E069817A818B819C810E94F2
:1004F0000B0182E692E00E94EA0123E030E04AE04C
:1005000050E06D817E818F8198850E940B0184E689
:1005100092E00E94EA0181E090E00E94F4008D8365
:100520009E832D813E81A8E8B3E10E9497036983F1
:100530007A838B839C8387E692E00E94EA01AD81F7
:10054000BE81CD01B0E0A0E023E030E040E150E02A
:10055000BC01CD010E940B018FE592E00E94EA01EF
:1005600069817A818B819C81A70196010E94780321
:10057000CA01B901A50194010E9456032D833E834F
:100580004F8358876D877E878F87988B21E030E077
:100590004AE050E06D817E818F8198850E940B0139
:1005A00082E692E00E94EA0123E030E04AE050E077
:1005B0006D857E858F8598890E940B0184E692E087
:1005C0000E94EA0181E792E00E94EA0189859A850A
:1005D000AB85BC858B399349A140B1050CF44AC069
:1005E00089819A81AB81BC818B399349A140B10546
:1005F0002CF185E090E00E948A0189859A85AB857F
:10060000BC85843D9E4AA440B1050CF02DCF898164
:100610009A81AB81BC8127C089819A81AB81BC81E1
:100620008C399F48A140B10524F485E090E00E94F8
:10063000900185E090E00E94A20116CF89819A8105
:10064000AB81BC818C399F48A140B105B4F685E0EF
:1006500090E00E94960183E792E00E94EA0189857A
:100660009A85AB85BC85843D9E4AA440B1050CF0BB
:10067000FBCEDFCF89859A85AB85BC858C399F48B9
:10068000A140B10524F689819A81AB81BC818B3967
:100690009349A140B1050CF4BFCF85E090E00E94E2
:1006A0009C018AE792E00E94EA01B1CFA1E21A2EF2
:1006B000AA1BBB1BFD010DC0AA1FBB1FEE1FFF1F06
:1006C000A217B307E407F50720F0A21BB30BE40B56
:1006D000F50B661F771F881F991F1A9469F760959D
:1006E0007095809590959B01AC01BD01CF01089557
:1006F000052E97FB1EF400940E948F0357FD07D030
:100700000E94560307FC03D04EF40C948F035095BF
:100710004095309521953F4F4F4F5F4F08959095ED
:100720008095709561957F4F8F4F9F4F0895A29F41
:10073000B001B39FC001A39F700D811D1124911DB5
:10074000B29F700D811D1124911D0895F894FFCF63
:100750000000000200000000CF0100000000303166
:100760003233343536373839414243444546001B2D
:100770005B324A1B5B313B3148000D0A41544D65E9
:10078000676133323850206D756C746920492F4F82
:10079000206578616D706C652E0D0A004D65617382
:1007A000757265732074686520766F6C7461676517
:1007B000206174206368616E6E656C732030206107
:1007C0006E642031202870696E7320323320616E90
:1007D00064203234206F66204449503238207061E2
:1007E000636B616765290D0A004D656173757265FC
:1007F0007320706572696F64206F6E2050423120E3
:100800002870696E203135206F6620444950323897
:10081000207061636B616765290D0A00546F67671B
:100820006C6573205044322C205044332C205044AB
:10083000342C205044352C20504436202870696ECA
:100840007320342C20352C20362C2031312C2031B3
:1008500032206F66204449503238207061636B61EA
:100860006765290D0A0047656E65726174657320BE
:10087000536572766F2050574D7320696E20504437
:10088000372C20504230202831332C203134206F37
:1008900066204449503238207061636B6167652976
:1008A0000D0A0D0A004144435B305D3D3078002C59
:1008B00020002E005620004144435B315D3D3078DE
:1008C000000D00726967687420006C656674200012
:00000001FF
