:1000000002002E220000000000000000000000009E
:1000200000000000000000000000000204C3758111
:100030004C120A58E582600302009A780079007A2F
:10004000007B007C007D00EC4D601C88828983E48D
:1000500093A3A882A9838A828B83F0A3AA82AB830D
:100060001CBCFFE31D80E07582007583007C007D71
:1000700000EC4D600AE4F0A31CBCFFF51D80F27596
:1000800082007583007C007D00EC4D600AE4F0A3E3
:100090001CBCFFF51D80F21200031204D480FE4543
:1000A0007874656E73696F6E20747970653A202577
:1000B00030327820202530327820202530327820C8
:1000C000202530327820202530327820202530320B
:1000D000780A00436F6D6D616E64001B5B324A00ED
:1000E0005661726961626C65206672657175656ED4
:1000F00063792067656E657261746F7220666F72D6
:10010000207468652045464D384C42312E0D0A4317
:100110006865636B2070696E732050322E302061E9
:100120006E642050322E31207769746820746865BF
:10013000206F7363696C6C6F73636F70652E0D0A4B
:10014000000A41637475616C206672657175656E35
:1001500063793A20256C750A00427574746F6E00DD
:10016000466F72776172640A00466F7277617264DB
:100170000020004261636B776172640A0042616330
:100180006B77617264004C6566740A004C65667436
:100190000052696768740A005269676874001B5BE3
:1001A000324A1B5B313B3148000A0A45464D384C08
:1001B000423120574949204E756E636875636B2044
:1001C000493243205265616465720A004E756E6360
:1001D0006875636B004F66667365745F583A2534C3
:1001E00064204F66667365745F593A2534640A0A61
:1001F0000053746F700A0053746F7000427574740A
:100200006F6E73285A3A25632C20433A25632920C0
:100210004A6F79737469636B282534642C20253404
:10022000642920416363656C65726F6D65746572E6
:10023000282533642C202533642C20253364291B86
:100240005B304A0D00547261636B00547261636BE2
:10025000696E67003C4E4F20464C4F41543E00AA09
:1002600082ABA775A71043A60175A2C075A3E6854A
:10027000A2A485A3A5C29FD29A7C00C3EC9A500881
:10028000109F0280FB0C80F3C29A8BA7228582C24A
:10029000C2C030C0FD22C2C030C0FD85C28222D2A1
:1002A000C1D2C5C2C4C2C030C0FDC2C522D2C4C200
:1002B000C02212029F7582A412028D7582F0120272
:1002C0008D75825512028D1202AD75820112025F88
:1002D00012029F7582A412028D7582FB12028D7527
:1002E000820012028D1202AD75820112025F1202AB
:1002F0009F7582A412028D7582FA12028D1202ADD0
:1003000075820312025F12029F7582A512028D7A16
:1003100000BA06005015EA2423F8C002C0001202F9
:1003200096E582D000D002F60A80E6C2C11202AD84
:1003300075820312025F30004BAA287B00AC277D38
:1003400000852629752A0085252B752C0085242DEE
:10035000752E00AE237F00C002C003C004C005C0DC
:1003600029C02AC02BC02CC02DC02EC006C00774C7
:100370009FC0E07400C0E07480C0E0120C63E581AF
:1003800024F1F58112029F7582A412028D7582F00C
:1003900012028D7582AA12028D1202AD75820112AF
:1003A000025F12029F7582A412028D7582401202B2
:1003B0008D75820012028D75820012028D75820089
:1003C00012028D75820012028D75820012028D75E7
:1003D000820012028D1202AD75820112025F1202BA
:1003E0009F7582A412028D75824012028D75820063
:1003F00012028D75820012028D75820012028D75B7
:10040000820012028D75820012028D758200120226
:100410008D1202AD75820112025F12029F7582A4D5
:1004200012028D75824012028D75820012028D7546
:10043000820012028D75820012028D7582001202F6
:100440008D1202AD75820102025FAA82AB83ACF00D
:10045000C002C003C00412029F7582A412028D75EF
:10046000820012028D1202AD75820312025F120227
:100470009F7582A512028DD004D003D0027D00BDED
:100480000600503AED2AFEE43BFF8C00C002C00398
:10049000C004C005C006C007C000120296E582D0A5
:1004A00000D007D006D005D004D003D002641724B2
:1004B00017F98E828F8388F0120C840D80C1C2C11F
:1004C0000202ADC0D075D000C2CFB2A0A2A0B3923C
:1004D000A1D0D032E4F541F542F543F544120B9436
:1004E000C2CA75CA0075CBF7D2CA208313E543454B
:1004F000447008754301E4F5448005E4F543F54490
:10050000E54345446003020A12750901D2039000D5
:10051000D375F080120BC6C2CAC2A0C2A1900BB89C
:10052000120B02D2CA208513E5414542700875417D
:1005300001E4F5428005E4F541F542E541454260BC
:10054000030206D974DBC0E07400C0E07480C0E030
:10055000120C6315811581158174E0C0E07400C030
:10056000E07480C0E0120C63158115811581740957
:10057000C0E0743DC0E0E4C0E0C0E07441C0E0749D
:1005800001C0E07480C0E0120C63E58124F9F581BC
:10059000750902D20390015975F080120BC62085AF
:1005A00009900064120B0202052520830990006463
:1005B000120B020204EA2097442097417460C0E0C5
:1005C0007401C0E07480C0E0120C631581158115C0
:1005D00081750901D20390016975F080120BC6750F
:1005E0000902D20390017175F080120BC6C2CAC213
:1005F000A0C2A1900FA0120B02D2CA80BC209544C9
:100600002095417473C0E07401C0E07480C0E012B2
:100610000C63158115811581750901D20390017D47
:1006200075F080120BC6750902D20390017175F046
:1006300080120BC6C2CAC2A0C2A1901388120B02BC
:10064000D2CA80BC2092452092427486C0E07401D8
:10065000C0E07480C0E0120C6315811581158175AE
:100660000901D20390018C75F080120BC675090246
:10067000D20390017175F080120BC6C2CAC2A0C22B
:10068000A1901770120B02D2CA0206003087030233
:10069000059E30870302059E7491C0E07401C0E09E
:1006A0007480C0E0120C63158115811581750901F4
:1006B000D20390019875F080120BC6750902D2031F
:1006C00090017175F080120BC6C2CAC2A0C2A1907F
:1006D0001B58120B02D2CA80B97401B54106E4B5A9
:1006E00042028003020525749EC0E07401C0E074DC
:1006F00080C0E0120C6315811581158174A9C0E0DA
:100700007401C0E07480C0E0120C6315811581157E
:10071000817582C812025FD2001202B27582641221
:10072000025F750902D2039001CC75F080120BC6EE
:1007300090002F75F04012044AAE2F7F00EE248007
:10074000F537EF34FFF538AC307D00EC2480F53917
:10075000ED34FFF53AC039C03AC037C03874D5C05F
:10076000E07401C0E07480C0E0120C63E58124F9FC
:10077000F581208509900064120B02020525208373
:1007800009900064120B020204EA90002F75F040F9
:1007900012044AAA2F7B00EA2480FAEB34FFFBEA1A
:1007A000C39537FAEB9538FBAC307D00EC2480FC28
:1007B000ED34FFFDECC39539F535ED953AF536E5A9
:1007C0003175F004A4F53B85F03CE53275F004A4E6
:1007D000F53D85F03EE53375F004A4F53F85F04026
:1007E000E534139201E534A2E19202E53430E20BE4
:1007F0007402253BF53BE4353CF53CE53430E30839
:10080000053BE4B53B02053CE53430E40B740225BE
:100810003DF53DE4353EF53EE53430E508053DE483
:10082000B53D02053EE53430E60B7402253FF53F49
:10083000E43540F540E53430E708053FE4B53F02D4
:100840000540C374509AE464808BF063F08095F0A7
:100850005032750901D20390019875F080C002C032
:1008600003120BC6750902D20390017175F0801254
:100870000BC6C2CAC2A0C2A1901B58120B02D00361
:10088000D002D2CAC3EA94B0EB6480947F50327530
:100890000901D20390018C75F080C002C003120BD5
:1008A000C6750902D20390017175F080120BC6C2A1
:1008B000CAC2A0C2A1901770120B02D003D002D2FC
:1008C000CAC374509535E464808536F063F0809532
:1008D000F05047C002C0037460C0E07401C0E0740F
:1008E00080C0E0120C63158115811581750901D254
:1008F0000390016975F080120BC6750902D203904E
:10090000017175F080120BC6C2CAC2A0C2A1900FBD
:10091000A0120B02D003D002D2CAC3E53594B0E5D1
:10092000366480947F5047C002C0037473C0E07483
:1009300001C0E07480C0E0120C631581158115813F
:10094000750901D20390017D75F080120BC67509FF
:1009500002D20390017175F080120BC6C2CAC2A008
:10096000C2A1901388120B02D003D002D2CA200178
:1009700047C002C00374F1C0E07401C0E07480C0DD
:10098000E0120C63158115811581750901D2039060
:1009900001F775F080120BC6750902D20390017140
:1009A00075F080120BC6C2CAC2A0C2A19003E812A1
:1009B0000B02D003D002D2CA3002047E3180027E04
:1009C00030EE3395E0FF3001057545318003754504
:1009D00030E545FC3395E0FDC03FC040C03DC03E22
:1009E000C03BC03CC035C036C002C003C006C00713
:1009F000C004C00574FCC0E07401C0E07480C0E0B5
:100A0000120C63E58124EFF58175826412025F02A6
:100A100007727401B54306E4B5440280030204EA98
:100A2000750901D20390024575F080120BC6C2CA47
:100A3000C2A0C2A19007D0120B02D2CA2083099093
:100A40000064120B020204EA750901D20390024B02
:100A500075F080120BC680E475A7007597DE759758
:100A6000AD43FF8075EF0275A71075C12075A70013
:100A700075A90075A900E5A930E7FB75A90375A95B
:100A800003E5A930E7FB43A60343A41075E1057510
:100A9000E21075E340759810758DE6858D8B53894E
:100AA0000F438920D28ED29975C800438E1075CA23
:100AB000EE75CBF675CEFF75CFFFD2ADD2CAD2AFF1
:100AC000438E045389F0438902758C10758A10D2C5
:100AD0008C43C18075820022AA82438E407592B8F1
:100AE0007593FF8592948593957591047B00C3EB74
:100AF0009A500BE59130E7FB53917F0B80F0759195
:100B00000022AA82AB837C007D00C3EC9AED9B504F
:100B10002B7E00BE0400501D7582FAC002C003C0C7
:100B200004C005C006120AD8D006D005D004D003F0
:100B3000D0020E80DE0CBC00D10D80CE22D2A67574
:100B40008228120AD8C2A622AA828AE0A2E792A22A
:100B5000A2E692A3A2E592A4A2E492A5C002120B7F
:100B60003D758228120AD8D0028AE0A2E392A2A29E
:100B7000E292A3A2E192A4A2E092A5020B3DD2B020
:100B8000120B48900002020B02C2B0120B489000F8
:100B900005020B02C2A6900014120B0275823312DA
:100BA0000B89758233120B89758232120B8975821B
:100BB00028120B8975820C120B89758201120B8920
:100BC000900014020B02AA82AB83ACF07402B50948
:100BD000047DC080027D808D82C002C003C00412EB
:100BE0000B89900005120B02D004D003D0027D00C7
:100BF0007E00ED2AFFEE3BF88C018F82888389F01E
:100C0000120C9DFF60208F82C002C003C004C0058B
:100C1000C006120B7ED006D005D004D003D0020D42
:100C2000BD00CF0E80CC3003248D028E03C3EA9426
:100C300010EB648094805015758220C002C00312AE
:100C40000B7ED003D0020ABA00E30B80E02202122E
:100C5000D985821985831A85F01B850A1C900C4E54
:100C6000020D42C008858108E50824FBF51CE50853
:100C700024FBF8861908861A08861B900C4E120D64
:100C800042D0082220F71030F6118883A88220F580
:100C900007F6A88375830022F280F7F02220F7146C
:100CA00030F6148883A88220F507E6A883758300B0
:100CB00022E280F7E49322E022AA8274CAC0E074A0
:100CC0000CC0E0C00BC00C8A82220512E4B51202EF
:100CD000051322AA8274302AFA24C6500A74072AFD
:100CE000FA3004034302208A82020CB9E582FAC476
:100CF000540FF582C002120CD3D002740F5AF58241
:100D0000020CD3AA0DAB0EAC0FAD10AE11751820AE
:100D1000EE2EFEED235401FF4206EA2AFAEB33FBE6
:100D2000EC33FCED33FDC3EE95144008EEC395148F
:100D3000FE430201D518D98A0D8B0E8C0F8D108EB3
:100D4000112285820B85830CE4F512F513AA19ABE9
:100D50001AAC1B8A828B838CF0120C9DFD74012AC5
:100D6000F519E43BF51A8C1BEDFA70030212D2BAA6
:100D7000250280030212CAC208C209C20AC20BC2FB
:100D80000CC20DC20EC20FC205C206C20775140006
:100D90007515007516FFAB19AC1AAD1B8B828C83D1
:100DA0008DF0120C9DFAA3AB82AC838B198C1A8D3B
:100DB0001BBA25078A82120CB980928A06BE3000BF
:100DC000402E8A06EE24C6402774FFB51613E5159B
:100DD00075F00AA4FEEA24D02EF51570BFD2098062
:100DE000BBE51675F00AA4FEEA24D02EF51680ACF9
:100DF000BA2E0A74FFB516A4751600809F8A06BE27
:100E00006100400E8A06EE248540075302DFD204BB
:100E10008002C204BA20028075BA2303020E9DBA72
:100E20002A03020EA2BA2B02805FBA2D028055BAA5
:100E30004202805FBA4303020EE7BA440302102263
:100E4000BA450302103CBA4603021038BA470302FF
:100E50001040BA4903021022BA4C02803BBA4E033A
:100E6000021044BA4F03021029BA5003020FBBBA52
:100E70005303020F0BBA550302102EBA5803021087
:100E80003302106ED208020D9CD20A020D9CD20BC6
:100E9000020D9CD20D020D9CD20E020D9CD20F02AF
:100EA0000D9C74FFB51620300D0BE51C14F8881C42
:100EB0008615020D9CE51C24FEF8881C8606088613
:100EC00007188E15020D9C300D0BE51C14F8881CBC
:100ED0008616020D9CE51C24FEF8881C86060886F2
:100EE00007188E16020D9C300D0AE51C14F8881C9C
:100EF0008602800FE51C24FEF8881C860308860401
:100F0000188B028A82120CB9021073E51C24FDF8BA
:100F1000881C860308860408860518188B0D8C0E1D
:100F20008D0F8B828C838DF01212EEAB82AC838B93
:100F30001774FFB5160385171620081DC3E517950E
:100F4000155016E515C39517F515AB151515EB607E
:100F500008758220120CB980F1850D82850E83857B
:100F60000FF0120C9DFBFA6029AB161516C3E46452
:100F7000808BF063F08095F050188A82120CB9AB28
:100F80000DAC0EAD0F0BBB00010C8B0D8C0E8D0F3D
:100F900080C7200803021073C3E5179515400302AC
:100FA0001073E515C39517F515AB151515EB700303
:100FB000021073758220120CB980EEE51C24FDF836
:100FC000881C860308860408860518188B0D8C0E6D
:100FD0008D0FE50FFB30E7047A438013EB5460601C
:100FE000047A50800AEB30E6047A4980027A588A03
:100FF00082C002120CB975823A120CB97582301295
:101000000CB9758278120CB9D002BA4902800BBAB9
:1010100050028006850E82120CEC850D82120CECBB
:101020008051D20C75140A804A75140880457514D5
:101030000A8040751410803BD2058037D206803379
:10104000D207802FE51C24FDF8881C86030886043F
:1010500008860518188B0D8C0E8D0F8B828C838D56
:10106000F0E512120C84A3E513120C8480058A8229
:10107000120CB920050620060330075AE51C24FC93
:10108000F8881C8603088604088605088606181852
:10109000188B0D8C0E8D0F8E10750D54750E0275FC
:1010A0000F80850D1D850E1E850F1F7401251DFEE9
:1010B000E4351EFFAB1F8E0D8F0E8B0F851D8285B5
:1010C0001E83851FF0120C9DFBFA7003020D4D8AE2
:1010D00082120CB980CCE5147003020D4D7B4C30AC
:1010E0000D2BE51C14F8881CE6FC3395E0FDFEFF93
:1010F0008C0D8D0E8E0F8F10200C5EAC0D7D007E42
:10110000007F008C0D8D0E8E0F8F10804C300E1FC7
:10111000E51C24FCF8881C86040886050886060859
:1011200086071818188C0D8D0E8E0F8F10802AE5EB
:101130001C24FEF8881C860408860518ED3395E00B
:10114000FEFF8C0D8D0E8E0F8F10200C0CAC0DAD94
:101150000E7E007F008E0F8F10300F43E50D450E81
:10116000450F451060397408B5140C758230C00302
:10117000120CB9D00380287410B51423758230C0C6
:1011800003120CB9D00330040C758278C003120C22
:10119000B9D003800A758258C003120CB9D003304D
:1011A0000C25AC0DAD0EAE0FE510FF30E717C3E414
:1011B0009CFCE49DFDE49EFEE49FFF8C0D8D0E8E55
:1011C0000F8F108002C20C751700D2108B007511A2
:1011D00000C000120D03D00020100DE511C4FCE684
:1011E000FD4CF61888038002A6110517B210E50D14
:1011F000450E450F451070D68803E515700375152B
:101200000120091A200817E51704FCC39515500E94
:10121000758220C003120CB9D003151580E9300C7B
:101220000E75822DC003120CB9D00315158024E56C
:10123000176020300A0E75822BC003120CB9D00340
:101240001515800F300B0C758220C003120CB9D01D
:1012500003151520081EAC151515C3E5179C50275E
:101260003009047C3080027C208C82C003120CB9CF
:10127000D00380E2C3E51795155009E515C395170E
:10128000F51580037515008B00AB171517EB602261
:10129000B21020100A08E6C4540FFB8B1180078699
:1012A00003740F5BF511851182C000120CD3D000BE
:1012B00080D7200803020D4DAB151515EB70030206
:1012C0000D4D758220120CB980EE8A82120CB90283
:1012D0000D4D85128285138322AA82BA0A081099BD
:1012E0000280FB75990D10990280FB8A9922AA82CF
:1012F000AB83ACF07D007E008A828B838CF0120C75
:101300009DFFA3AA82AB83EF60070DBD00EA0E80AC
:10131000E78D828E832200000000000000000000A4
:00000001FF
